{
  "contractName": "CoShoe",
  "abi": [
    {
      "constant": true,
      "inputs": [
        {
          "name": "",
          "type": "uint256"
        }
      ],
      "name": "shoes",
      "outputs": [
        {
          "name": "owner",
          "type": "address"
        },
        {
          "name": "name",
          "type": "string"
        },
        {
          "name": "image",
          "type": "string"
        },
        {
          "name": "sold",
          "type": "bool"
        }
      ],
      "payable": false,
      "stateMutability": "view",
      "type": "function"
    },
    {
      "constant": true,
      "inputs": [],
      "name": "price",
      "outputs": [
        {
          "name": "",
          "type": "uint256"
        }
      ],
      "payable": false,
      "stateMutability": "view",
      "type": "function"
    },
    {
      "constant": true,
      "inputs": [],
      "name": "shoesSold",
      "outputs": [
        {
          "name": "",
          "type": "uint256"
        }
      ],
      "payable": false,
      "stateMutability": "view",
      "type": "function"
    },
    {
      "inputs": [
        {
          "name": "_token",
          "type": "address"
        }
      ],
      "payable": false,
      "stateMutability": "nonpayable",
      "type": "constructor"
    },
    {
      "constant": true,
      "inputs": [],
      "name": "coShoeCount",
      "outputs": [
        {
          "name": "",
          "type": "uint256"
        }
      ],
      "payable": false,
      "stateMutability": "view",
      "type": "function"
    },
    {
      "constant": true,
      "inputs": [],
      "name": "shoesSoldCount",
      "outputs": [
        {
          "name": "",
          "type": "uint256"
        }
      ],
      "payable": false,
      "stateMutability": "view",
      "type": "function"
    },
    {
      "constant": false,
      "inputs": [
        {
          "name": "_name",
          "type": "string"
        },
        {
          "name": "_image",
          "type": "string"
        }
      ],
      "name": "buyShoe",
      "outputs": [
        {
          "name": "",
          "type": "bool"
        }
      ],
      "payable": true,
      "stateMutability": "payable",
      "type": "function"
    },
    {
      "constant": true,
      "inputs": [],
      "name": "checkPurchases",
      "outputs": [
        {
          "name": "",
          "type": "bool[100]"
        }
      ],
      "payable": false,
      "stateMutability": "view",
      "type": "function"
    }
  ],
  "bytecode": "0x60806040526706f05b59d3b20000600155600060025534801561002157600080fd5b5060405160208062000f368339810180604052602081101561004257600080fd5b81019080805190602001909291905050506000600190505b606481116101af576000339050606060405180602001604052806000815250905060606040518060200160405280600081525090506000809050600360405180608001604052808673ffffffffffffffffffffffffffffffffffffffff1681526020018581526020018481526020018315158152509080600181540180825580915050906001820390600052602060002090600402016000909192909190915060008201518160000160006101000a81548173ffffffffffffffffffffffffffffffffffffffff021916908373ffffffffffffffffffffffffffffffffffffffff160217905550602082015181600101908051906020019061015d9291906101f6565b50604082015181600201908051906020019061017a9291906101f6565b5060608201518160030160006101000a81548160ff02191690831515021790555050505050505050808060010191505061005a565b50806000806101000a81548173ffffffffffffffffffffffffffffffffffffffff021916908373ffffffffffffffffffffffffffffffffffffffff1602179055505061029b565b828054600181600116156101000203166002900490600052602060002090601f016020900481019282601f1061023757805160ff1916838001178555610265565b82800160010185558215610265579182015b82811115610264578251825591602001919060010190610249565b5b5090506102729190610276565b5090565b61029891905b8082111561029457600081600090555060010161027c565b5090565b90565b610c8b80620002ab6000396000f3fe6080604052600436106100705760003560e01c8063607473cf1161004e578063607473cf1461025d578063a035b1fe146103bb578063c141e8eb146103e6578063c6983a4f1461041157610070565b806320f9500214610075578063540a2f4f146100a0578063558a2b8b1461020a575b600080fd5b34801561008157600080fd5b5061008a61043c565b6040518082815260200191505060405180910390f35b6101f0600480360360408110156100b657600080fd5b81019080803590602001906401000000008111156100d357600080fd5b8201836020820111156100e557600080fd5b8035906020019184600183028401116401000000008311171561010757600080fd5b91908080601f016020809104026020016040519081016040528093929190818152602001838380828437600081840152601f19601f8201169050808301925050505050505091929192908035906020019064010000000081111561016a57600080fd5b82018360208201111561017c57600080fd5b8035906020019184600183028401116401000000008311171561019e57600080fd5b91908080601f016020809104026020016040519081016040528093929190818152602001838380828437600081840152601f19601f820116905080830192505050505050509192919290505050610446565b604051808215151515815260200191505060405180910390f35b34801561021657600080fd5b5061021f6108ca565b6040518082606460200280838360005b8381101561024a57808201518184015260208101905061022f565b5050505090500191505060405180910390f35b34801561026957600080fd5b506102966004803603602081101561028057600080fd5b81019080803590602001909291905050506109e4565b604051808573ffffffffffffffffffffffffffffffffffffffff1673ffffffffffffffffffffffffffffffffffffffff168152602001806020018060200184151515158152602001838103835286818151815260200191508051906020019080838360005b838110156103165780820151818401526020810190506102fb565b50505050905090810190601f1680156103435780820380516001836020036101000a031916815260200191505b50838103825285818151815260200191508051906020019080838360005b8381101561037c578082015181840152602081019050610361565b50505050905090810190601f1680156103a95780820380516001836020036101000a031916815260200191505b50965050505050505060405180910390f35b3480156103c757600080fd5b506103d0610b7e565b6040518082815260200191505060405180910390f35b3480156103f257600080fd5b506103fb610b84565b6040518082815260200191505060405180910390f35b34801561041d57600080fd5b50610426610b8a565b6040518082815260200191505060405180910390f35b6000600254905090565b6000806000809054906101000a900473ffffffffffffffffffffffffffffffffffffffff1673ffffffffffffffffffffffffffffffffffffffff166370a08231336040518263ffffffff1660e01b8152600401808273ffffffffffffffffffffffffffffffffffffffff1673ffffffffffffffffffffffffffffffffffffffff16815260200191505060206040518083038186803b1580156104e757600080fd5b505afa1580156104fb573d6000803e3d6000fd5b505050506040513d602081101561051157600080fd5b810190808051906020019092919050505011610595576040517f08c379a00000000000000000000000000000000000000000000000000000000081526004018080602001828103825260158152602001807f627579657220686173206e6f20434f546f6b656e73000000000000000000000081525060200191505060405180910390fd5b60008060009054906101000a900473ffffffffffffffffffffffffffffffffffffffff1673ffffffffffffffffffffffffffffffffffffffff1663554c7adf6040518163ffffffff1660e01b815260040160206040518083038186803b1580156105fe57600080fd5b505afa158015610612573d6000803e3d6000fd5b505050506040513d602081101561062857600080fd5b810190808051906020019092919050505090506000809054906101000a900473ffffffffffffffffffffffffffffffffffffffff1673ffffffffffffffffffffffffffffffffffffffff166323b872dd338360016040518463ffffffff1660e01b8152600401808473ffffffffffffffffffffffffffffffffffffffff1673ffffffffffffffffffffffffffffffffffffffff1681526020018373ffffffffffffffffffffffffffffffffffffffff1673ffffffffffffffffffffffffffffffffffffffff1681526020018281526020019350505050602060405180830381600087803b15801561071857600080fd5b505af115801561072c573d6000803e3d6000fd5b505050506040513d602081101561074257600080fd5b81019080805190602001909291905050505060008090505b6003805490508110156108bd57600015156003828154811061077857fe5b906000526020600020906004020160030160009054906101000a900460ff16151514156108b05733600382815481106107ad57fe5b906000526020600020906004020160000160006101000a81548173ffffffffffffffffffffffffffffffffffffffff021916908373ffffffffffffffffffffffffffffffffffffffff160217905550846003828154811061080a57fe5b9060005260206000209060040201600101908051906020019061082e929190610b97565b50836003828154811061083d57fe5b90600052602060002090600402016002019080519060200190610861929190610b97565b5060016003828154811061087157fe5b906000526020600020906004020160030160006101000a81548160ff0219169083151502179055506001600254016002819055506001925050506108c4565b808060010191505061075a565b5060009150505b92915050565b6108d2610c17565b606060646040519080825280602002602001820160405280156109045781602001602082028038833980820191505090505b50905060008090505b6003805490508110156109df573373ffffffffffffffffffffffffffffffffffffffff166003828154811061093e57fe5b906000526020600020906004020160000160009054906101000a900473ffffffffffffffffffffffffffffffffffffffff1673ffffffffffffffffffffffffffffffffffffffff1614156109b157600182828151811061099a57fe5b6020026020010190151590811515815250506109d2565b60008282815181106109bf57fe5b6020026020010190151590811515815250505b808060010191505061090d565b505090565b600381815481106109f157fe5b90600052602060002090600402016000915090508060000160009054906101000a900473ffffffffffffffffffffffffffffffffffffffff1690806001018054600181600116156101000203166002900480601f016020809104026020016040519081016040528092919081815260200182805460018160011615610100020316600290048015610ac35780601f10610a9857610100808354040283529160200191610ac3565b820191906000526020600020905b815481529060010190602001808311610aa657829003601f168201915b505050505090806002018054600181600116156101000203166002900480601f016020809104026020016040519081016040528092919081815260200182805460018160011615610100020316600290048015610b615780601f10610b3657610100808354040283529160200191610b61565b820191906000526020600020905b815481529060010190602001808311610b4457829003601f168201915b5050505050908060030160009054906101000a900460ff16905084565b60015481565b60025481565b6000600380549050905090565b828054600181600116156101000203166002900490600052602060002090601f016020900481019282601f10610bd857805160ff1916838001178555610c06565b82800160010185558215610c06579182015b82811115610c05578251825591602001919060010190610bea565b5b509050610c139190610c3a565b5090565b60405180610c800160405280606490602082028038833980820191505090505090565b610c5c91905b80821115610c58576000816000905550600101610c40565b5090565b9056fea165627a7a723058204747d3ccfd783a61baf2f69f98515109858e63f0b22d54cc3ba9b219116fc45a0029",
  "source": "pragma solidity >=0.4.21 <0.6.0;\n\nimport \"./COToken.sol\"; // to inherit Co\n\ncontract CoShoe {\n\n    COToken coToken;\n    // struct for each unique shoe called Shoe, which holds 4 variables used to identify each unique shoe\n\n    struct Shoe {\n        address owner;\n        string name;\n        string image;\n        bool sold;\n    }\n\n    // price is s state variable with the value of 0.5 ether converted to wei\n\n    uint public price = 0.5*(10**18);\n    uint public shoesSold = 0;\n\n    Shoe[] public shoes; // array holding all the instances of Shoe\n\n// the constructor below creats 100 CoShoe tokens\n    constructor (address _token) public {\n\n        for (uint i = 1; i <= 100; i++)\n        {\n        address _owner = msg.sender;\n        string memory _name = \"\";\n        string memory _image = \"\";\n        bool _sold = false;\n\n        shoes.push(Shoe(_owner, _name, _image, _sold));\n        }\n\n        coToken = COToken(_token); //give CoShoe the address of our token contract\n    }\n\n    // for a check I will inculde a count for the number of tokens in shoes array\n    function coShoeCount() public view returns (uint256) {\n        return shoes.length;\n    }\n\n    function shoesSoldCount() public view returns (uint256) {\n        return shoesSold;\n    }\n\n    // update thus function to see whether buyer has COTokens\n\n    function buyShoe(string memory _name, string memory _image) public payable returns(bool) {\n\n        // need to check whether msg.sender has any COTokens (could be more than 1)\n        require(coToken.balanceOf(msg.sender) > 0, \"buyer has no COTokens\");\n\n        //transfer tokens to COToken owner\n        address COTokenAddrs = coToken.OwnerAdress();\n        coToken.transferFrom(msg.sender, COTokenAddrs, 1); //transfre 1 token\n\n        // check that there are shoes available and the first one that is false get sold, else return false and nothing is executed\n        for (uint i = 0; i < shoes.length; i++)\n        {\n            if(shoes[i].sold == false){\n                shoes[i].owner = msg.sender;\n                shoes[i].name = _name;\n                shoes[i].image = _image;\n                shoes[i].sold = true;\n\n                shoesSold = shoesSold + 1; // add number of shoes sold\n\n                return true;\n            }\n\n        }\n        // otherwise return false\n        return false;\n    }\n\n    function checkPurchases() public view returns(bool[100] memory) {\n\n        bool[] memory yourPurchases = new bool[](100); // create memory array to safe gas\n\n        for (uint i = 0; i < shoes.length; i++){\n            if(shoes[i].owner == msg.sender){\n\n                yourPurchases[i] = true;\n\n            } else {\n\n                yourPurchases[i] = false;\n\n            }\n        }\n\n        // return yourPurchases;\n    }\n\n\n}",
  "sourcePath": "/Users/julikapahl30/FinTech/GitHub/FTC_Exam/Part2/Question3/contracts/CoShoe.sol",
  "compiler": {
    "name": "solc",
    "version": "0.5.8+commit.23d335f2.Emscripten.clang"
  },
  "schemaVersion": "3.0.11",
  "updatedAt": "2019-08-04T14:56:28.013Z",
  "devdoc": {
    "methods": {}
  },
  "userdoc": {
    "methods": {}
  }
}