{
  "contractName": "CoShoe",
  "abi": [
    {
      "constant": true,
      "inputs": [
        {
          "name": "",
          "type": "uint256"
        }
      ],
      "name": "shoes",
      "outputs": [
        {
          "name": "owner",
          "type": "address"
        },
        {
          "name": "name",
          "type": "string"
        },
        {
          "name": "image",
          "type": "string"
        },
        {
          "name": "sold",
          "type": "bool"
        }
      ],
      "payable": false,
      "stateMutability": "view",
      "type": "function"
    },
    {
      "constant": true,
      "inputs": [],
      "name": "price",
      "outputs": [
        {
          "name": "",
          "type": "uint256"
        }
      ],
      "payable": false,
      "stateMutability": "view",
      "type": "function"
    },
    {
      "constant": true,
      "inputs": [],
      "name": "shoesSold",
      "outputs": [
        {
          "name": "",
          "type": "uint256"
        }
      ],
      "payable": false,
      "stateMutability": "view",
      "type": "function"
    },
    {
      "inputs": [],
      "payable": false,
      "stateMutability": "nonpayable",
      "type": "constructor"
    },
    {
      "constant": true,
      "inputs": [],
      "name": "coShoeCount",
      "outputs": [
        {
          "name": "",
          "type": "uint256"
        }
      ],
      "payable": false,
      "stateMutability": "view",
      "type": "function"
    },
    {
      "constant": true,
      "inputs": [],
      "name": "shoesSoldCount",
      "outputs": [
        {
          "name": "",
          "type": "uint256"
        }
      ],
      "payable": false,
      "stateMutability": "view",
      "type": "function"
    },
    {
      "constant": false,
      "inputs": [
        {
          "name": "_name",
          "type": "string"
        },
        {
          "name": "_image",
          "type": "string"
        }
      ],
      "name": "buyShoe",
      "outputs": [
        {
          "name": "",
          "type": "bool"
        }
      ],
      "payable": true,
      "stateMutability": "payable",
      "type": "function"
    },
    {
      "constant": true,
      "inputs": [],
      "name": "checkPurchases",
      "outputs": [
        {
          "name": "",
          "type": "bool[100]"
        }
      ],
      "payable": false,
      "stateMutability": "view",
      "type": "function"
    }
  ],
  "bytecode": "0x60806040526706f05b59d3b20000600055600060015534801561002157600080fd5b506000600190505b6064811161017e576000339050606060405180602001604052806000815250905060606040518060200160405280600081525090506000809050600260405180608001604052808673ffffffffffffffffffffffffffffffffffffffff1681526020018581526020018481526020018315158152509080600181540180825580915050906001820390600052602060002090600402016000909192909190915060008201518160000160006101000a81548173ffffffffffffffffffffffffffffffffffffffff021916908373ffffffffffffffffffffffffffffffffffffffff160217905550602082015181600101908051906020019061012c929190610184565b506040820151816002019080519060200190610149929190610184565b5060608201518160030160006101000a81548160ff021916908315150217905550505050505050508080600101915050610029565b50610229565b828054600181600116156101000203166002900490600052602060002090601f016020900481019282601f106101c557805160ff19168380011785556101f3565b828001600101855582156101f3579182015b828111156101f25782518255916020019190600101906101d7565b5b5090506102009190610204565b5090565b61022691905b8082111561022257600081600090555060010161020a565b5090565b90565b6109cd806102386000396000f3fe6080604052600436106100705760003560e01c8063607473cf1161004e578063607473cf1461025d578063a035b1fe146103bb578063c141e8eb146103e6578063c6983a4f1461041157610070565b806320f9500214610075578063540a2f4f146100a0578063558a2b8b1461020a575b600080fd5b34801561008157600080fd5b5061008a61043c565b6040518082815260200191505060405180910390f35b6101f0600480360360408110156100b657600080fd5b81019080803590602001906401000000008111156100d357600080fd5b8201836020820111156100e557600080fd5b8035906020019184600183028401116401000000008311171561010757600080fd5b91908080601f016020809104026020016040519081016040528093929190818152602001838380828437600081840152601f19601f8201169050808301925050505050505091929192908035906020019064010000000081111561016a57600080fd5b82018360208201111561017c57600080fd5b8035906020019184600183028401116401000000008311171561019e57600080fd5b91908080601f016020809104026020016040519081016040528093929190818152602001838380828437600081840152601f19601f820116905080830192505050505050509192919290505050610446565b604051808215151515815260200191505060405180910390f35b34801561021657600080fd5b5061021f610631565b6040518082606460200280838360005b8381101561024a57808201518184015260208101905061022f565b5050505090500191505060405180910390f35b34801561026957600080fd5b506102966004803603602081101561028057600080fd5b8101908080359060200190929190505050610726565b604051808573ffffffffffffffffffffffffffffffffffffffff1673ffffffffffffffffffffffffffffffffffffffff168152602001806020018060200184151515158152602001838103835286818151815260200191508051906020019080838360005b838110156103165780820151818401526020810190506102fb565b50505050905090810190601f1680156103435780820380516001836020036101000a031916815260200191505b50838103825285818151815260200191508051906020019080838360005b8381101561037c578082015181840152602081019050610361565b50505050905090810190601f1680156103a95780820380516001836020036101000a031916815260200191505b50965050505050505060405180910390f35b3480156103c757600080fd5b506103d06108c0565b6040518082815260200191505060405180910390f35b3480156103f257600080fd5b506103fb6108c6565b6040518082815260200191505060405180910390f35b34801561041d57600080fd5b506104266108cc565b6040518082815260200191505060405180910390f35b6000600154905090565b6000805434146104be576040517f08c379a00000000000000000000000000000000000000000000000000000000081526004018080602001828103825260158152602001807f4e6f742074686520636f7272656374205072696365000000000000000000000081525060200191505060405180910390fd5b60008090505b6002805490508110156106255760001515600282815481106104e257fe5b906000526020600020906004020160030160009054906101000a900460ff161515141561061857336002828154811061051757fe5b906000526020600020906004020160000160006101000a81548173ffffffffffffffffffffffffffffffffffffffff021916908373ffffffffffffffffffffffffffffffffffffffff160217905550836002828154811061057457fe5b906000526020600020906004020160010190805190602001906105989291906108d9565b5082600282815481106105a757fe5b906000526020600020906004020160020190805190602001906105cb9291906108d9565b506001600282815481106105db57fe5b906000526020600020906004020160030160006101000a81548160ff0219169083151502179055506001805401600181905550600191505061062b565b80806001019150506104c4565b50600090505b92915050565b610639610959565b6060606460405190808252806020026020018201604052801561066b5781602001602082028038833980820191505090505b50905060008090505b600280549050811015610721573373ffffffffffffffffffffffffffffffffffffffff16600282815481106106a557fe5b906000526020600020906004020160000160009054906101000a900473ffffffffffffffffffffffffffffffffffffffff1673ffffffffffffffffffffffffffffffffffffffff16141561071457600182828151811061070157fe5b6020026020010190151590811515815250505b8080600101915050610674565b505090565b6002818154811061073357fe5b90600052602060002090600402016000915090508060000160009054906101000a900473ffffffffffffffffffffffffffffffffffffffff1690806001018054600181600116156101000203166002900480601f0160208091040260200160405190810160405280929190818152602001828054600181600116156101000203166002900480156108055780601f106107da57610100808354040283529160200191610805565b820191906000526020600020905b8154815290600101906020018083116107e857829003601f168201915b505050505090806002018054600181600116156101000203166002900480601f0160208091040260200160405190810160405280929190818152602001828054600181600116156101000203166002900480156108a35780601f10610878576101008083540402835291602001916108a3565b820191906000526020600020905b81548152906001019060200180831161088657829003601f168201915b5050505050908060030160009054906101000a900460ff16905084565b60005481565b60015481565b6000600280549050905090565b828054600181600116156101000203166002900490600052602060002090601f016020900481019282601f1061091a57805160ff1916838001178555610948565b82800160010185558215610948579182015b8281111561094757825182559160200191906001019061092c565b5b509050610955919061097c565b5090565b60405180610c800160405280606490602082028038833980820191505090505090565b61099e91905b8082111561099a576000816000905550600101610982565b5090565b9056fea165627a7a72305820feac578900c7ed46669688531f3a031adc25e3a886ac238ec9c6bac814b856830029",
  "source": "pragma solidity >=0.4.21 <0.6.0;\n\ncontract CoShoe {\n\n    // struct for each unique shoe called Shoe, which holds 4 variables used to identify each unique shoe\n\n    struct Shoe {\n        address owner;\n        string name;\n        string image;\n        bool sold;\n    }\n\n    // price is s state variable with the value of 0.5 ether converted to wei\n\n    uint public price = 0.5*(10**18);\n    uint public shoesSold = 0;\n\n    Shoe[] public shoes; // array holding all the instances of Shoe\n\n// the constructor below creats 100 CoShoe tokens\n    constructor () public {\n\n        for (uint i = 1; i <= 100; i++)\n        {\n        address _owner = msg.sender;\n        string memory _name = \"\";\n        string memory _image = \"\";\n        bool _sold = false;\n\n        shoes.push(Shoe(_owner, _name, _image, _sold));\n        }\n    }\n\n    // for a check I will inculde a count for the number of tokens in shoes array\n    function coShoeCount() public view returns (uint256) {\n        return shoes.length;\n    }\n\n    function shoesSoldCount() public view returns (uint256) {\n        return shoesSold;\n    }\n\n    function buyShoe(string memory _name, string memory _image) public payable returns(bool) {\n        require(msg.value == price, \"Not the correct Price\");\n        // can use msg.value to check whether the price is correct as is carries the value of the transaction in wei\n\n        // check that there are shoes available and the first one that is false get sold, else return false and nothing is executed\n        for (uint i = 0; i < shoes.length; i++)\n        {\n            if(shoes[i].sold == false){\n                shoes[i].owner = msg.sender;\n                shoes[i].name = _name;\n                shoes[i].image = _image;\n                shoes[i].sold = true;\n\n                shoesSold = shoesSold + 1; // add number of shoes sold\n\n                return true;\n            }\n\n        }\n        // otherwise return false\n        return false;\n    }\n\n    function checkPurchases() public view returns(bool[100] memory) {\n\n        bool[] memory yourPurchases = new bool[](100); // create memory array to safe gas\n\n        for (uint i = 0; i < shoes.length; i++){\n            if(shoes[i].owner == msg.sender) {\n\n                yourPurchases[i] = true;\n        \n            }\n\n        }\n\n        //return (yourPurchases);\n    }\n\n// dont understand why the function below did not work\n\n// tried doing the below instead but that does not retrun an array, but only a true or false\n\n // mapping(address => bool) public theBuyers;\n\n    // function checkPurchases() public returns(bool[] memory) {\n\n    //     theBuyers[msg.sender] = true;\n\n    // }\n\n\n}",
  "sourcePath": "/Users/julikapahl30/FinTech/GitHub/FTC_Exam/Part2/Question1/contracts/CoShoe.sol",
  "compiler": {
    "name": "solc",
    "version": "0.5.8+commit.23d335f2.Emscripten.clang"
  },
  "schemaVersion": "3.0.11",
  "updatedAt": "2019-08-04T21:18:48.953Z",
  "devdoc": {
    "methods": {}
  },
  "userdoc": {
    "methods": {}
  }
}