{
  "contractName": "CoShoe",
  "abi": [
    {
      "constant": true,
      "inputs": [
        {
          "name": "",
          "type": "uint256"
        }
      ],
      "name": "shoes",
      "outputs": [
        {
          "name": "owner",
          "type": "address"
        },
        {
          "name": "name",
          "type": "string"
        },
        {
          "name": "image",
          "type": "string"
        },
        {
          "name": "sold",
          "type": "bool"
        }
      ],
      "payable": false,
      "stateMutability": "view",
      "type": "function"
    },
    {
      "constant": true,
      "inputs": [],
      "name": "price",
      "outputs": [
        {
          "name": "",
          "type": "uint256"
        }
      ],
      "payable": false,
      "stateMutability": "view",
      "type": "function"
    },
    {
      "constant": true,
      "inputs": [],
      "name": "shoesSold",
      "outputs": [
        {
          "name": "",
          "type": "uint256"
        }
      ],
      "payable": false,
      "stateMutability": "view",
      "type": "function"
    },
    {
      "inputs": [],
      "payable": false,
      "stateMutability": "nonpayable",
      "type": "constructor"
    },
    {
      "constant": true,
      "inputs": [],
      "name": "coShoeCount",
      "outputs": [
        {
          "name": "",
          "type": "uint256"
        }
      ],
      "payable": false,
      "stateMutability": "view",
      "type": "function"
    },
    {
      "constant": false,
      "inputs": [
        {
          "name": "_name",
          "type": "string"
        },
        {
          "name": "_image",
          "type": "string"
        }
      ],
      "name": "buyShoe",
      "outputs": [
        {
          "name": "",
          "type": "bool"
        }
      ],
      "payable": true,
      "stateMutability": "payable",
      "type": "function"
    },
    {
      "constant": true,
      "inputs": [],
      "name": "checkPurchases",
      "outputs": [
        {
          "name": "",
          "type": "bool[100]"
        }
      ],
      "payable": false,
      "stateMutability": "view",
      "type": "function"
    }
  ],
  "bytecode": "0x60806040526706f05b59d3b20000600055600060015534801561002157600080fd5b506000600190505b606481111515610183576000339050606060206040519081016040528060008152509050606060206040519081016040528060008152509050600080905060026080604051908101604052808673ffffffffffffffffffffffffffffffffffffffff1681526020018581526020018481526020018315158152509080600181540180825580915050906001820390600052602060002090600402016000909192909190915060008201518160000160006101000a81548173ffffffffffffffffffffffffffffffffffffffff021916908373ffffffffffffffffffffffffffffffffffffffff1602179055506020820151816001019080519060200190610131929190610189565b50604082015181600201908051906020019061014e929190610189565b5060608201518160030160006101000a81548160ff021916908315150217905550505050505050508080600101915050610029565b5061022e565b828054600181600116156101000203166002900490600052602060002090601f016020900481019282601f106101ca57805160ff19168380011785556101f8565b828001600101855582156101f8579182015b828111156101f75782518255916020019190600101906101dc565b5b5090506102059190610209565b5090565b61022b91905b8082111561022757600081600090555060010161020f565b5090565b90565b6109d88061023d6000396000f3fe608060405260043610610072576000357c010000000000000000000000000000000000000000000000000000000090048063540a2f4f14610077578063558a2b8b146101e1578063607473cf14610234578063a035b1fe14610392578063c141e8eb146103bd578063c6983a4f146103e8575b600080fd5b6101c76004803603604081101561008d57600080fd5b81019080803590602001906401000000008111156100aa57600080fd5b8201836020820111156100bc57600080fd5b803590602001918460018302840111640100000000831117156100de57600080fd5b91908080601f016020809104026020016040519081016040528093929190818152602001838380828437600081840152601f19601f8201169050808301925050505050505091929192908035906020019064010000000081111561014157600080fd5b82018360208201111561015357600080fd5b8035906020019184600183028401116401000000008311171561017557600080fd5b91908080601f016020809104026020016040519081016040528093929190818152602001838380828437600081840152601f19601f820116905080830192505050505050509192919290505050610413565b604051808215151515815260200191505060405180910390f35b3480156101ed57600080fd5b506101f661060a565b6040518082606460200280838360005b83811015610221578082015181840152602081019050610206565b5050505090500191505060405180910390f35b34801561024057600080fd5b5061026d6004803603602081101561025757600080fd5b810190808035906020019092919050505061072e565b604051808573ffffffffffffffffffffffffffffffffffffffff1673ffffffffffffffffffffffffffffffffffffffff168152602001806020018060200184151515158152602001838103835286818151815260200191508051906020019080838360005b838110156102ed5780820151818401526020810190506102d2565b50505050905090810190601f16801561031a5780820380516001836020036101000a031916815260200191505b50838103825285818151815260200191508051906020019080838360005b83811015610353578082015181840152602081019050610338565b50505050905090810190601f1680156103805780820380516001836020036101000a031916815260200191505b50965050505050505060405180910390f35b34801561039e57600080fd5b506103a76108ca565b6040518082815260200191505060405180910390f35b3480156103c957600080fd5b506103d26108d0565b6040518082815260200191505060405180910390f35b3480156103f457600080fd5b506103fd6108d6565b6040518082815260200191505060405180910390f35b600080543414151561048d576040517f08c379a00000000000000000000000000000000000000000000000000000000081526004018080602001828103825260158152602001807f4e6f742074686520636f7272656374205072696365000000000000000000000081525060200191505060405180910390fd5b60008090505b6002805490508110156105fe57600015156002828154811015156104b357fe5b906000526020600020906004020160030160009054906101000a900460ff16151514156105f157336002828154811015156104ea57fe5b906000526020600020906004020160000160006101000a81548173ffffffffffffffffffffffffffffffffffffffff021916908373ffffffffffffffffffffffffffffffffffffffff1602179055508360028281548110151561054957fe5b9060005260206000209060040201600101908051906020019061056d9291906108e3565b508260028281548110151561057e57fe5b906000526020600020906004020160020190805190602001906105a29291906108e3565b5060016002828154811015156105b457fe5b906000526020600020906004020160030160006101000a81548160ff02191690831515021790555060018054016001819055506001915050610604565b8080600101915050610493565b50600090505b92915050565b610612610963565b606060646040519080825280602002602001820160405280156106445781602001602082028038833980820191505090505b50905060008090505b600280549050811015610729573373ffffffffffffffffffffffffffffffffffffffff1660028281548110151561068057fe5b906000526020600020906004020160000160009054906101000a900473ffffffffffffffffffffffffffffffffffffffff1673ffffffffffffffffffffffffffffffffffffffff1614156106f757600182828151811015156106de57fe5b906020019060200201901515908115158152505061071c565b6000828281518110151561070757fe5b90602001906020020190151590811515815250505b808060010191505061064d565b505090565b60028181548110151561073d57fe5b90600052602060002090600402016000915090508060000160009054906101000a900473ffffffffffffffffffffffffffffffffffffffff1690806001018054600181600116156101000203166002900480601f01602080910402602001604051908101604052809291908181526020018280546001816001161561010002031660029004801561080f5780601f106107e45761010080835404028352916020019161080f565b820191906000526020600020905b8154815290600101906020018083116107f257829003601f168201915b505050505090806002018054600181600116156101000203166002900480601f0160208091040260200160405190810160405280929190818152602001828054600181600116156101000203166002900480156108ad5780601f10610882576101008083540402835291602001916108ad565b820191906000526020600020905b81548152906001019060200180831161089057829003601f168201915b5050505050908060030160009054906101000a900460ff16905084565b60005481565b60015481565b6000600280549050905090565b828054600181600116156101000203166002900490600052602060002090601f016020900481019282601f1061092457805160ff1916838001178555610952565b82800160010185558215610952579182015b82811115610951578251825591602001919060010190610936565b5b50905061095f9190610987565b5090565b610c8060405190810160405280606490602082028038833980820191505090505090565b6109a991905b808211156109a557600081600090555060010161098d565b5090565b9056fea165627a7a723058206bb0b2087d8a8e0ae4c7dc19365dc45b62d0415ec9e9fa7ec59d45d40a8276c60029",
  "source": "pragma solidity >=0.4.21 <0.6.0;\n\ncontract CoShoe {\n\n    // struct for each unique shoe called Shoe, which holds 4 variables used to identify each unique shoe\n\n    struct Shoe {\n        address owner;\n        string name;\n        string image;\n        bool sold;\n    }\n\n    // price is s state variable with the value of 0.5 ether converted to wei\n\n    uint public price = 0.5*(10**18);\n    uint public shoesSold = 0;\n\n    Shoe[] public shoes; // array holding all the instances of Shoe\n\n// the constructor below creats 100 CoShoe tokens\n    constructor () public {\n\n        for (uint i = 1; i <= 100; i++)\n        {\n        address _owner = msg.sender;\n        string memory _name = \"\";\n        string memory _image = \"\";\n        bool _sold = false;\n\n        shoes.push(Shoe(_owner, _name, _image, _sold));\n        }\n    }\n\n    // for a check I will inculde a count for the number of tokens in shoes array\n    function coShoeCount() public view returns (uint256) {\n        return shoes.length;\n    }\n\n    function buyShoe(string memory _name, string memory _image) public payable returns(bool) {\n        require(msg.value == price, \"Not the correct Price\");\n        // can use msg.value to check whether the price is correct as is carries the value of the transaction in wei\n\n        // check that there are shoes available and the first one that is false get sold, else return false and nothing is executed\n        for (uint i = 0; i < shoes.length; i++)\n        {\n            if(shoes[i].sold == false){\n                shoes[i].owner = msg.sender;\n                shoes[i].name = _name;\n                shoes[i].image = _image;\n                shoes[i].sold = true;\n\n                shoesSold = shoesSold + 1; // add number of shoes sold\n                return true;\n            }\n\n        }\n        // otherwise return false\n        return false;\n    }\n\n    function checkPurchases() public view returns(bool[100] memory) {\n\n        bool[] memory yourPurchases = new bool[](100); // create memory array to safe gas\n\n        for (uint i = 0; i < shoes.length; i++){\n            if(shoes[i].owner == msg.sender){\n\n                yourPurchases[i] = true;\n\n            } else {\n\n                yourPurchases[i] = false;\n\n            }\n        }\n\n        // return yourPurchases;\n    }\n\n\n}",
  "sourcePath": "/Users/julikapahl30/FinTech/GitHub/FTC_Exam/Part2/Question1/contracts/CoShoe.sol",
  "compiler": {
    "name": "solc",
    "version": "0.5.1+commit.c8a2cb62.Emscripten.clang"
  },
  "schemaVersion": "3.0.11",
  "updatedAt": "2019-08-03T22:58:15.498Z",
  "devdoc": {
    "methods": {}
  },
  "userdoc": {
    "methods": {}
  }
}